{
  "contractName": "Tutors",
  "abi": [
    {
      "inputs": [],
      "stateMutability": "nonpayable",
      "type": "constructor"
    },
    {
      "anonymous": false,
      "inputs": [
        {
          "indexed": true,
          "internalType": "uint256",
          "name": "tutor",
          "type": "uint256"
        },
        {
          "indexed": true,
          "internalType": "string",
          "name": "name",
          "type": "string"
        },
        {
          "indexed": false,
          "internalType": "uint256",
          "name": "hourlyrate",
          "type": "uint256"
        },
        {
          "indexed": false,
          "internalType": "address",
          "name": "account",
          "type": "address"
        }
      ],
      "name": "LogTutorAdded",
      "type": "event"
    },
    {
      "anonymous": false,
      "inputs": [
        {
          "indexed": true,
          "internalType": "uint256",
          "name": "tutor",
          "type": "uint256"
        },
        {
          "indexed": true,
          "internalType": "address",
          "name": "student",
          "type": "address"
        }
      ],
      "name": "LogTutorBooked",
      "type": "event"
    },
    {
      "anonymous": false,
      "inputs": [
        {
          "indexed": true,
          "internalType": "address",
          "name": "previousOwner",
          "type": "address"
        },
        {
          "indexed": true,
          "internalType": "address",
          "name": "newOwner",
          "type": "address"
        }
      ],
      "name": "OwnershipTransferred",
      "type": "event"
    },
    {
      "inputs": [
        {
          "internalType": "uint256",
          "name": "",
          "type": "uint256"
        }
      ],
      "name": "idList",
      "outputs": [
        {
          "internalType": "uint256",
          "name": "",
          "type": "uint256"
        }
      ],
      "stateMutability": "view",
      "type": "function",
      "constant": true
    },
    {
      "inputs": [],
      "name": "idListLength",
      "outputs": [
        {
          "internalType": "uint256",
          "name": "",
          "type": "uint256"
        }
      ],
      "stateMutability": "view",
      "type": "function",
      "constant": true
    },
    {
      "inputs": [],
      "name": "owner",
      "outputs": [
        {
          "internalType": "address",
          "name": "",
          "type": "address"
        }
      ],
      "stateMutability": "view",
      "type": "function",
      "constant": true
    },
    {
      "inputs": [],
      "name": "renounceOwnership",
      "outputs": [],
      "stateMutability": "nonpayable",
      "type": "function"
    },
    {
      "inputs": [
        {
          "internalType": "address",
          "name": "newOwner",
          "type": "address"
        }
      ],
      "name": "transferOwnership",
      "outputs": [],
      "stateMutability": "nonpayable",
      "type": "function"
    },
    {
      "inputs": [
        {
          "internalType": "uint256",
          "name": "",
          "type": "uint256"
        }
      ],
      "name": "tutors",
      "outputs": [
        {
          "internalType": "uint256",
          "name": "tutorId",
          "type": "uint256"
        },
        {
          "internalType": "string",
          "name": "name",
          "type": "string"
        },
        {
          "internalType": "uint256",
          "name": "hourlyRate",
          "type": "uint256"
        },
        {
          "internalType": "enum Tutors.Status",
          "name": "status",
          "type": "uint8"
        },
        {
          "internalType": "address payable",
          "name": "account",
          "type": "address"
        },
        {
          "internalType": "string",
          "name": "subject",
          "type": "string"
        },
        {
          "internalType": "string",
          "name": "description",
          "type": "string"
        },
        {
          "internalType": "string",
          "name": "imgUrl",
          "type": "string"
        }
      ],
      "stateMutability": "view",
      "type": "function",
      "constant": true
    },
    {
      "inputs": [
        {
          "internalType": "uint256",
          "name": "",
          "type": "uint256"
        }
      ],
      "name": "tutorsRegistered",
      "outputs": [
        {
          "internalType": "bool",
          "name": "",
          "type": "bool"
        }
      ],
      "stateMutability": "view",
      "type": "function",
      "constant": true
    },
    {
      "inputs": [
        {
          "internalType": "string",
          "name": "_name",
          "type": "string"
        },
        {
          "internalType": "address",
          "name": "_account",
          "type": "address"
        },
        {
          "internalType": "uint256",
          "name": "_hourlyRate",
          "type": "uint256"
        },
        {
          "internalType": "string",
          "name": "_subject",
          "type": "string"
        },
        {
          "internalType": "string",
          "name": "_description",
          "type": "string"
        },
        {
          "internalType": "string",
          "name": "_imgUrl",
          "type": "string"
        }
      ],
      "name": "registerTutor",
      "outputs": [],
      "stateMutability": "nonpayable",
      "type": "function"
    },
    {
      "inputs": [
        {
          "internalType": "uint256",
          "name": "tutorId",
          "type": "uint256"
        }
      ],
      "name": "bookTutor",
      "outputs": [],
      "stateMutability": "payable",
      "type": "function",
      "payable": true
    },
    {
      "inputs": [],
      "name": "availableTutors",
      "outputs": [
        {
          "internalType": "uint256[]",
          "name": "",
          "type": "uint256[]"
        }
      ],
      "stateMutability": "view",
      "type": "function",
      "constant": true
    },
    {
      "inputs": [
        {
          "internalType": "uint256",
          "name": "id",
          "type": "uint256"
        },
        {
          "internalType": "bool",
          "name": "isAvail",
          "type": "bool"
        }
      ],
      "name": "setAvailability",
      "outputs": [],
      "stateMutability": "nonpayable",
      "type": "function"
    }
  ],
  "bytecode": "0x60806040526001805534801561001457600080fd5b5061003161002661003660201b60201c565b61003e60201b60201c565b610102565b600033905090565b60008060009054906101000a900473ffffffffffffffffffffffffffffffffffffffff169050816000806101000a81548173ffffffffffffffffffffffffffffffffffffffff021916908373ffffffffffffffffffffffffffffffffffffffff1602179055508173ffffffffffffffffffffffffffffffffffffffff168173ffffffffffffffffffffffffffffffffffffffff167f8be0079c531659141344cd1fd0a4f28419497f9722a3daafe3b4186f6b6457e060405160405180910390a35050565b611e24806101116000396000f3fe60806040526004361061009c5760003560e01c8063715018a611610064578063715018a6146101795780637310c954146101905780638da5cb5b146101d4578063a865bf80146101ff578063de7cfe3614610228578063f2fde38b146102655761009c565b8063025d267c146100a15780631b768f41146100bd57806349fc47bc146100e85780636313531f146101115780636386cd171461014e575b600080fd5b6100bb60048036038101906100b6919061147e565b61028e565b005b3480156100c957600080fd5b506100d261059b565b6040516100df9190611859565b60405180910390f35b3480156100f457600080fd5b5061010f600480360381019061010a9190611395565b6107ba565b005b34801561011d57600080fd5b506101386004803603810190610133919061147e565b610a76565b6040516101459190611956565b60405180910390f35b34801561015a57600080fd5b50610163610a9a565b6040516101709190611956565b60405180910390f35b34801561018557600080fd5b5061018e610aa0565b005b34801561019c57600080fd5b506101b760048036038101906101b2919061147e565b610b28565b6040516101cb98979695949392919061199a565b60405180910390f35b3480156101e057600080fd5b506101e9610dbd565b6040516101f6919061183e565b60405180910390f35b34801561020b57600080fd5b50610226600480360381019061022191906114a7565b610de6565b005b34801561023457600080fd5b5061024f600480360381019061024a919061147e565b610f20565b60405161025c919061187b565b60405180910390f35b34801561027157600080fd5b5061028c6004803603810190610287919061136c565b610f40565b005b806005600082815260200190815260200160002060009054906101000a900460ff16801561034f5750600060028111156102f1577f4e487b7100000000000000000000000000000000000000000000000000000000600052602160045260246000fd5b6004600083815260200190815260200160002060030160009054906101000a900460ff16600281111561034d577f4e487b7100000000000000000000000000000000000000000000000000000000600052602160045260246000fd5b145b61038e576040517f08c379a0000000000000000000000000000000000000000000000000000000008152600401610385906118b6565b60405180910390fd5b816005600082815260200190815260200160002060009054906101000a900460ff1680156103d15750346004600083815260200190815260200160002060020154145b610410576040517f08c379a000000000000000000000000000000000000000000000000000000000815260040161040790611896565b60405180910390fd5b600060046000858152602001908152602001600020905060018160030160006101000a81548160ff02191690836002811115610475577f4e487b7100000000000000000000000000000000000000000000000000000000600052602160045260246000fd5b021790555060008160030160019054906101000a900473ffffffffffffffffffffffffffffffffffffffff16905060008173ffffffffffffffffffffffffffffffffffffffff16346040516104c990611829565b60006040518083038185875af1925050503d8060008114610506576040519150601f19603f3d011682016040523d82523d6000602084013e61050b565b606091505b505090508061054f576040517f08c379a0000000000000000000000000000000000000000000000000000000008152600401610546906118f6565b60405180910390fd5b3373ffffffffffffffffffffffffffffffffffffffff16867f54a7f1573f46dd77f97502fb0e059c589cdedc1735be5940ea2d173d95203ded60405160405180910390a3505050505050565b606060006105a7611038565b67ffffffffffffffff8111156105e6577f4e487b7100000000000000000000000000000000000000000000000000000000600052604160045260246000fd5b6040519080825280602002602001820160405280156106145781602001602082028036833780820191505090505b5090506000805b6003548110156107b1576000600281111561065f577f4e487b7100000000000000000000000000000000000000000000000000000000600052602160045260246000fd5b600460006002848154811061069d577f4e487b7100000000000000000000000000000000000000000000000000000000600052603260045260246000fd5b9060005260206000200154815260200190815260200160002060030160009054906101000a900460ff1660028111156106ff577f4e487b7100000000000000000000000000000000000000000000000000000000600052602160045260246000fd5b141561079e576002818154811061073f577f4e487b7100000000000000000000000000000000000000000000000000000000600052603260045260246000fd5b9060005260206000200154838381518110610783577f4e487b7100000000000000000000000000000000000000000000000000000000600052603260045260246000fd5b602002602001018181525050818061079a90611c7f565b9250505b80806107a990611c7f565b91505061061b565b50819250505090565b6000600154905060006040518061010001604052808381526020018981526020018781526020016000600281111561081b577f4e487b7100000000000000000000000000000000000000000000000000000000600052602160045260246000fd5b81526020018873ffffffffffffffffffffffffffffffffffffffff16815260200186815260200185815260200184815250905060018060008282546108609190611b00565b9250508190555060028290806001815401808255809150506001900390600052602060002001600090919091909150556002805490506003819055508060046000836000015181526020019081526020016000206000820151816000015560208201518160010190805190602001906108da929190611222565b506040820151816002015560608201518160030160006101000a81548160ff02191690836002811115610936577f4e487b7100000000000000000000000000000000000000000000000000000000600052602160045260246000fd5b021790555060808201518160030160016101000a81548173ffffffffffffffffffffffffffffffffffffffff021916908373ffffffffffffffffffffffffffffffffffffffff16021790555060a082015181600401908051906020019061099e929190611222565b5060c08201518160050190805190602001906109bb929190611222565b5060e08201518160060190805190602001906109d8929190611222565b509050506001600560008360000151815260200190815260200160002060006101000a81548160ff0219169083151502179055508060200151604051610a1e9190611812565b604051809103902081600001517fe7ed7d16699ea86ccdc1c7fe7e1ebfe70665e948901d1437ae636221c31c704e83604001518460800151604051610a64929190611971565b60405180910390a35050505050505050565b60028181548110610a8657600080fd5b906000526020600020016000915090505481565b60035481565b610aa8611156565b73ffffffffffffffffffffffffffffffffffffffff16610ac6610dbd565b73ffffffffffffffffffffffffffffffffffffffff1614610b1c576040517f08c379a0000000000000000000000000000000000000000000000000000000008152600401610b1390611916565b60405180910390fd5b610b26600061115e565b565b6004602052806000526040600020600091509050806000015490806001018054610b5190611c4d565b80601f0160208091040260200160405190810160405280929190818152602001828054610b7d90611c4d565b8015610bca5780601f10610b9f57610100808354040283529160200191610bca565b820191906000526020600020905b815481529060010190602001808311610bad57829003601f168201915b5050505050908060020154908060030160009054906101000a900460ff16908060030160019054906101000a900473ffffffffffffffffffffffffffffffffffffffff1690806004018054610c1e90611c4d565b80601f0160208091040260200160405190810160405280929190818152602001828054610c4a90611c4d565b8015610c975780601f10610c6c57610100808354040283529160200191610c97565b820191906000526020600020905b815481529060010190602001808311610c7a57829003601f168201915b505050505090806005018054610cac90611c4d565b80601f0160208091040260200160405190810160405280929190818152602001828054610cd890611c4d565b8015610d255780601f10610cfa57610100808354040283529160200191610d25565b820191906000526020600020905b815481529060010190602001808311610d0857829003601f168201915b505050505090806006018054610d3a90611c4d565b80601f0160208091040260200160405190810160405280929190818152602001828054610d6690611c4d565b8015610db35780601f10610d8857610100808354040283529160200191610db3565b820191906000526020600020905b815481529060010190602001808311610d9657829003601f168201915b5050505050905088565b60008060009054906101000a900473ffffffffffffffffffffffffffffffffffffffff16905090565b6005600083815260200190815260200160002060009054906101000a900460ff16610e46576040517f08c379a0000000000000000000000000000000000000000000000000000000008152600401610e3d90611936565b60405180910390fd5b8015610eb65760006004600084815260200190815260200160002060030160006101000a81548160ff02191690836002811115610eac577f4e487b7100000000000000000000000000000000000000000000000000000000600052602160045260246000fd5b0217905550610f1c565b60026004600084815260200190815260200160002060030160006101000a81548160ff02191690836002811115610f16577f4e487b7100000000000000000000000000000000000000000000000000000000600052602160045260246000fd5b02179055505b5050565b60056020528060005260406000206000915054906101000a900460ff1681565b610f48611156565b73ffffffffffffffffffffffffffffffffffffffff16610f66610dbd565b73ffffffffffffffffffffffffffffffffffffffff1614610fbc576040517f08c379a0000000000000000000000000000000000000000000000000000000008152600401610fb390611916565b60405180910390fd5b600073ffffffffffffffffffffffffffffffffffffffff168173ffffffffffffffffffffffffffffffffffffffff16141561102c576040517f08c379a0000000000000000000000000000000000000000000000000000000008152600401611023906118d6565b60405180910390fd5b6110358161115e565b50565b6000806000905060005b60035481101561114e5760006002811115611086577f4e487b7100000000000000000000000000000000000000000000000000000000600052602160045260246000fd5b60046000600284815481106110c4577f4e487b7100000000000000000000000000000000000000000000000000000000600052603260045260246000fd5b9060005260206000200154815260200190815260200160002060030160009054906101000a900460ff166002811115611126577f4e487b7100000000000000000000000000000000000000000000000000000000600052602160045260246000fd5b141561113b57818061113790611c7f565b9250505b808061114690611c7f565b915050611042565b508091505090565b600033905090565b60008060009054906101000a900473ffffffffffffffffffffffffffffffffffffffff169050816000806101000a81548173ffffffffffffffffffffffffffffffffffffffff021916908373ffffffffffffffffffffffffffffffffffffffff1602179055508173ffffffffffffffffffffffffffffffffffffffff168173ffffffffffffffffffffffffffffffffffffffff167f8be0079c531659141344cd1fd0a4f28419497f9722a3daafe3b4186f6b6457e060405160405180910390a35050565b82805461122e90611c4d565b90600052602060002090601f0160209004810192826112505760008555611297565b82601f1061126957805160ff1916838001178555611297565b82800160010185558215611297579182015b8281111561129657825182559160200191906001019061127b565b5b5090506112a491906112a8565b5090565b5b808211156112c15760008160009055506001016112a9565b5090565b60006112d86112d384611a65565b611a34565b9050828152602081018484840111156112f057600080fd5b6112fb848285611c0b565b509392505050565b60008135905061131281611da9565b92915050565b60008135905061132781611dc0565b92915050565b600082601f83011261133e57600080fd5b813561134e8482602086016112c5565b91505092915050565b60008135905061136681611dd7565b92915050565b60006020828403121561137e57600080fd5b600061138c84828501611303565b91505092915050565b60008060008060008060c087890312156113ae57600080fd5b600087013567ffffffffffffffff8111156113c857600080fd5b6113d489828a0161132d565b96505060206113e589828a01611303565b95505060406113f689828a01611357565b945050606087013567ffffffffffffffff81111561141357600080fd5b61141f89828a0161132d565b935050608087013567ffffffffffffffff81111561143c57600080fd5b61144889828a0161132d565b92505060a087013567ffffffffffffffff81111561146557600080fd5b61147189828a0161132d565b9150509295509295509295565b60006020828403121561149057600080fd5b600061149e84828501611357565b91505092915050565b600080604083850312156114ba57600080fd5b60006114c885828601611357565b92505060206114d985828601611318565b9150509250929050565b60006114ef83836117f4565b60208301905092915050565b61150481611bc3565b82525050565b61151381611b68565b82525050565b61152281611b56565b82525050565b600061153382611aa5565b61153d8185611ac8565b935061154883611a95565b8060005b8381101561157957815161156088826114e3565b975061156b83611abb565b92505060018101905061154c565b5085935050505092915050565b61158f81611b7a565b82525050565b61159e81611bd5565b82525050565b60006115af82611ab0565b6115b98185611ae4565b93506115c9818560208601611c1a565b6115d281611d84565b840191505092915050565b60006115e882611ab0565b6115f28185611af5565b9350611602818560208601611c1a565b80840191505092915050565b600061161b602083611ae4565b91507f506c65617365207061792065786163742074756974696f6e20616d6f756e742e6000830152602082019050919050565b600061165b601c83611ae4565b91507f54686973207475746f72206973206e6f7420617661696c61626c652e000000006000830152602082019050919050565b600061169b602683611ae4565b91507f4f776e61626c653a206e6577206f776e657220697320746865207a65726f206160008301527f64647265737300000000000000000000000000000000000000000000000000006020830152604082019050919050565b6000611701602283611ae4565b91507f426f6f6b696e672073657373696f6e2077697468207475746f72206661696c6560008301527f642e0000000000000000000000000000000000000000000000000000000000006020830152604082019050919050565b6000611767602083611ae4565b91507f4f776e61626c653a2063616c6c6572206973206e6f7420746865206f776e65726000830152602082019050919050565b60006117a7601483611ae4565b91507f5475746f72206e6f7420726567697374657265640000000000000000000000006000830152602082019050919050565b60006117e7600083611ad9565b9150600082019050919050565b6117fd81611bb9565b82525050565b61180c81611bb9565b82525050565b600061181e82846115dd565b915081905092915050565b6000611834826117da565b9150819050919050565b60006020820190506118536000830184611519565b92915050565b600060208201905081810360008301526118738184611528565b905092915050565b60006020820190506118906000830184611586565b92915050565b600060208201905081810360008301526118af8161160e565b9050919050565b600060208201905081810360008301526118cf8161164e565b9050919050565b600060208201905081810360008301526118ef8161168e565b9050919050565b6000602082019050818103600083015261190f816116f4565b9050919050565b6000602082019050818103600083015261192f8161175a565b9050919050565b6000602082019050818103600083015261194f8161179a565b9050919050565b600060208201905061196b6000830184611803565b92915050565b60006040820190506119866000830185611803565b61199360208301846114fb565b9392505050565b6000610100820190506119b0600083018b611803565b81810360208301526119c2818a6115a4565b90506119d16040830189611803565b6119de6060830188611595565b6119eb608083018761150a565b81810360a08301526119fd81866115a4565b905081810360c0830152611a1181856115a4565b905081810360e0830152611a2581846115a4565b90509998505050505050505050565b6000604051905081810181811067ffffffffffffffff82111715611a5b57611a5a611d55565b5b8060405250919050565b600067ffffffffffffffff821115611a8057611a7f611d55565b5b601f19601f8301169050602081019050919050565b6000819050602082019050919050565b600081519050919050565b600081519050919050565b6000602082019050919050565b600082825260208201905092915050565b600081905092915050565b600082825260208201905092915050565b600081905092915050565b6000611b0b82611bb9565b9150611b1683611bb9565b9250827fffffffffffffffffffffffffffffffffffffffffffffffffffffffffffffffff03821115611b4b57611b4a611cc8565b5b828201905092915050565b6000611b6182611b99565b9050919050565b6000611b7382611b99565b9050919050565b60008115159050919050565b6000819050611b9482611d95565b919050565b600073ffffffffffffffffffffffffffffffffffffffff82169050919050565b6000819050919050565b6000611bce82611be7565b9050919050565b6000611be082611b86565b9050919050565b6000611bf282611bf9565b9050919050565b6000611c0482611b99565b9050919050565b82818337600083830152505050565b60005b83811015611c38578082015181840152602081019050611c1d565b83811115611c47576000848401525b50505050565b60006002820490506001821680611c6557607f821691505b60208210811415611c7957611c78611d26565b5b50919050565b6000611c8a82611bb9565b91507fffffffffffffffffffffffffffffffffffffffffffffffffffffffffffffffff821415611cbd57611cbc611cc8565b5b600182019050919050565b7f4e487b7100000000000000000000000000000000000000000000000000000000600052601160045260246000fd5b7f4e487b7100000000000000000000000000000000000000000000000000000000600052602160045260246000fd5b7f4e487b7100000000000000000000000000000000000000000000000000000000600052602260045260246000fd5b7f4e487b7100000000000000000000000000000000000000000000000000000000600052604160045260246000fd5b6000601f19601f8301169050919050565b60038110611da657611da5611cf7565b5b50565b611db281611b56565b8114611dbd57600080fd5b50565b611dc981611b7a565b8114611dd457600080fd5b50565b611de081611bb9565b8114611deb57600080fd5b5056fea2646970667358221220a133ae534ab561ed29ea3199caa6a6f451e79b49b8cbe658e31a721c0af6248964736f6c63430008000033",
  "immutableReferences": {},
  "source": "// SPDX-License-Identifier: MIT\npragma solidity 0.8.0;\n\nimport \"@openzeppelin/contracts/access/Ownable.sol\";\n\ncontract Tutors is Ownable {\n    /// @dev Tracks tutor IDs. Next tutor that is registered gets the current value of tutorIdCounter id.\n    uint256 private tutorIdCounter = 1;\n\n    enum Status {\n        Available,\n        Booked,\n        NotAvailable\n    }\n\n    struct Tutor {\n        uint256 tutorId;\n        string name;\n        uint256 hourlyRate;\n        Status status;\n        address payable account;\n        string subject;\n        string description;\n        string imgUrl;\n    }\n\n    /// @notice List of all tutor ids.\n    /// @dev Used as a helper when iterating available tutors.\n    uint256[] public idList;\n\n    /// @notice idList length.\n    /// @dev Used as a helper when iterating available tutors.\n    uint256 public idListLength;\n\n    mapping(uint256 => Tutor) public tutors;\n    mapping(uint256 => bool) public tutorsRegistered;\n\n    /// @notice Emitted when a tutor is added to the service\n    /// @param tutor tutor id\n    /// @param name tutor name\n    /// @param hourlyrate tutor's hourly rate\n    /// @param account tutor's ETH address where payments will be deposited\n    event LogTutorAdded(\n        uint256 indexed tutor,\n        string indexed name,\n        uint256 hourlyrate,\n        address account\n    );\n\n    /// @notice Emitted when a tutor is booked by a student\n    /// @param tutor tutor id\n    /// @param student students address\n    event LogTutorBooked(uint256 indexed tutor, address indexed student);\n\n    modifier isTutorAvailable(uint256 id) {\n        require(\n            tutorsRegistered[id] && tutors[id].status == Status.Available,\n            \"This tutor is not available.\"\n        );\n        _;\n    }\n\n    modifier isExactPayment(uint256 id) {\n        require(\n            tutorsRegistered[id] && tutors[id].hourlyRate == msg.value,\n            \"Please pay exact tuition amount.\"\n        );\n        _;\n    }\n\n    constructor() {}\n\n    function registerTutor(\n        string memory _name,\n        address _account,\n        uint256 _hourlyRate,\n        string memory _subject,\n        string memory _description,\n        string memory _imgUrl\n    ) public {\n        uint256 newTutorId = tutorIdCounter;\n\n        Tutor memory newTutor = Tutor({\n            tutorId: newTutorId,\n            name: _name,\n            hourlyRate: _hourlyRate,\n            status: Status.Available,\n            account: payable(_account),\n            subject: _subject,\n            description: _description,\n            imgUrl: _imgUrl\n        });\n\n        tutorIdCounter += 1;\n        idList.push(newTutorId);\n        idListLength = idList.length;\n        tutors[newTutor.tutorId] = newTutor;\n        tutorsRegistered[newTutor.tutorId] = true;\n\n        emit LogTutorAdded(\n            newTutor.tutorId,\n            newTutor.name,\n            newTutor.hourlyRate,\n            newTutor.account\n        );\n    }\n\n    function bookTutor(uint256 tutorId)\n        public\n        payable\n        isTutorAvailable(tutorId)\n        isExactPayment(tutorId)\n    {\n        Tutor storage _t = tutors[tutorId];\n        _t.status = Status.Booked;\n        address tutorAcc = _t.account;\n        (bool success, ) = tutorAcc.call{value: msg.value}(\"\");\n        require(success, \"Booking session with tutor failed.\");\n        emit LogTutorBooked(tutorId, msg.sender);\n    }\n\n    function _getAvailCount() internal view returns (uint256) {\n        uint256 count = 0;\n        for (uint256 i = 0; i < idListLength; i++) {\n            if (tutors[idList[i]].status == Status.Available) {\n                count++;\n            }\n        }\n        return count;\n    }\n\n    function availableTutors() external view returns (uint256[] memory) {\n        uint256[] memory availIds = new uint256[](_getAvailCount());\n        uint256 j = 0;\n        for (uint256 i = 0; i < idListLength; i++) {\n            if (tutors[idList[i]].status == Status.Available) {\n                availIds[j] = idList[i];\n                j++;\n            }\n        }\n        return availIds;\n    }\n\n    function setAvailability(uint256 id, bool isAvail) public {\n        require(tutorsRegistered[id], \"Tutor not registered\");\n        if (isAvail) {\n            tutors[id].status = Status.Available;\n        } else {\n            tutors[id].status = Status.NotAvailable;\n        }\n    }\n}\n",
  "sourcePath": "/Users/suren/Desktop/suren/blockchain/rentals/blockchain-developer-bootcamp-final-project/contracts/Tutors.sol",
  "compiler": {
    "name": "solc",
    "version": "0.8.0+commit.c7dfd78e.Emscripten.clang"
  },
  "schemaVersion": "3.4.1",
  "updatedAt": "2021-12-30T18:03:36.180Z",
  "networkType": "ethereum",
  "devdoc": {
    "events": {
      "LogTutorAdded(uint256,string,uint256,address)": {
        "params": {
          "account": "tutor's ETH address where payments will be deposited",
          "hourlyrate": "tutor's hourly rate",
          "name": "tutor name",
          "tutor": "tutor id"
        }
      },
      "LogTutorBooked(uint256,address)": {
        "params": {
          "student": "students address",
          "tutor": "tutor id"
        }
      }
    },
    "kind": "dev",
    "methods": {
      "owner()": {
        "details": "Returns the address of the current owner."
      },
      "renounceOwnership()": {
        "details": "Leaves the contract without owner. It will not be possible to call `onlyOwner` functions anymore. Can only be called by the current owner. NOTE: Renouncing ownership will leave the contract without an owner, thereby removing any functionality that is only available to the owner."
      },
      "transferOwnership(address)": {
        "details": "Transfers ownership of the contract to a new account (`newOwner`). Can only be called by the current owner."
      }
    },
    "stateVariables": {
      "idList": {
        "details": "Used as a helper when iterating available tutors."
      },
      "idListLength": {
        "details": "Used as a helper when iterating available tutors."
      },
      "tutorIdCounter": {
        "details": "Tracks tutor IDs. Next tutor that is registered gets the current value of tutorIdCounter id."
      }
    },
    "version": 1
  },
  "userdoc": {
    "events": {
      "LogTutorAdded(uint256,string,uint256,address)": {
        "notice": "Emitted when a tutor is added to the service"
      },
      "LogTutorBooked(uint256,address)": {
        "notice": "Emitted when a tutor is booked by a student"
      }
    },
    "kind": "user",
    "methods": {
      "idList(uint256)": {
        "notice": "List of all tutor ids."
      },
      "idListLength()": {
        "notice": "idList length."
      }
    },
    "version": 1
  }
}