{
  "contractName": "Tutors",
  "abi": [
    {
      "inputs": [],
      "stateMutability": "nonpayable",
      "type": "constructor"
    },
    {
      "anonymous": false,
      "inputs": [
        {
          "indexed": true,
          "internalType": "address",
          "name": "tutor",
          "type": "address"
        },
        {
          "indexed": false,
          "internalType": "bool",
          "name": "isAvail",
          "type": "bool"
        }
      ],
      "name": "LogAvailabilityChange",
      "type": "event"
    },
    {
      "anonymous": false,
      "inputs": [
        {
          "indexed": true,
          "internalType": "uint256",
          "name": "tutorId",
          "type": "uint256"
        },
        {
          "indexed": true,
          "internalType": "address",
          "name": "student",
          "type": "address"
        }
      ],
      "name": "LogDeleteBooking",
      "type": "event"
    },
    {
      "anonymous": false,
      "inputs": [
        {
          "indexed": true,
          "internalType": "uint256",
          "name": "tutor",
          "type": "uint256"
        },
        {
          "indexed": true,
          "internalType": "string",
          "name": "name",
          "type": "string"
        },
        {
          "indexed": false,
          "internalType": "uint256",
          "name": "hourlyrate",
          "type": "uint256"
        },
        {
          "indexed": false,
          "internalType": "address",
          "name": "account",
          "type": "address"
        }
      ],
      "name": "LogTutorAdded",
      "type": "event"
    },
    {
      "anonymous": false,
      "inputs": [
        {
          "indexed": true,
          "internalType": "uint256",
          "name": "tutor",
          "type": "uint256"
        },
        {
          "indexed": true,
          "internalType": "address",
          "name": "student",
          "type": "address"
        }
      ],
      "name": "LogTutorBooked",
      "type": "event"
    },
    {
      "anonymous": false,
      "inputs": [
        {
          "indexed": true,
          "internalType": "address",
          "name": "previousOwner",
          "type": "address"
        },
        {
          "indexed": true,
          "internalType": "address",
          "name": "newOwner",
          "type": "address"
        }
      ],
      "name": "OwnershipTransferred",
      "type": "event"
    },
    {
      "inputs": [
        {
          "internalType": "uint256",
          "name": "",
          "type": "uint256"
        }
      ],
      "name": "bookings",
      "outputs": [
        {
          "internalType": "address",
          "name": "",
          "type": "address"
        }
      ],
      "stateMutability": "view",
      "type": "function",
      "constant": true
    },
    {
      "inputs": [
        {
          "internalType": "uint256",
          "name": "",
          "type": "uint256"
        }
      ],
      "name": "idList",
      "outputs": [
        {
          "internalType": "uint256",
          "name": "",
          "type": "uint256"
        }
      ],
      "stateMutability": "view",
      "type": "function",
      "constant": true
    },
    {
      "inputs": [],
      "name": "idListLength",
      "outputs": [
        {
          "internalType": "uint256",
          "name": "",
          "type": "uint256"
        }
      ],
      "stateMutability": "view",
      "type": "function",
      "constant": true
    },
    {
      "inputs": [],
      "name": "owner",
      "outputs": [
        {
          "internalType": "address",
          "name": "",
          "type": "address"
        }
      ],
      "stateMutability": "view",
      "type": "function",
      "constant": true
    },
    {
      "inputs": [],
      "name": "renounceOwnership",
      "outputs": [],
      "stateMutability": "nonpayable",
      "type": "function"
    },
    {
      "inputs": [
        {
          "internalType": "address",
          "name": "newOwner",
          "type": "address"
        }
      ],
      "name": "transferOwnership",
      "outputs": [],
      "stateMutability": "nonpayable",
      "type": "function"
    },
    {
      "inputs": [
        {
          "internalType": "uint256",
          "name": "",
          "type": "uint256"
        }
      ],
      "name": "tutors",
      "outputs": [
        {
          "internalType": "uint256",
          "name": "tutorId",
          "type": "uint256"
        },
        {
          "internalType": "string",
          "name": "name",
          "type": "string"
        },
        {
          "internalType": "uint256",
          "name": "hourlyRate",
          "type": "uint256"
        },
        {
          "internalType": "enum Tutors.Status",
          "name": "status",
          "type": "uint8"
        },
        {
          "internalType": "address payable",
          "name": "account",
          "type": "address"
        },
        {
          "internalType": "string",
          "name": "subject",
          "type": "string"
        },
        {
          "internalType": "string",
          "name": "description",
          "type": "string"
        },
        {
          "internalType": "string",
          "name": "imgUrl",
          "type": "string"
        }
      ],
      "stateMutability": "view",
      "type": "function",
      "constant": true
    },
    {
      "inputs": [
        {
          "internalType": "address",
          "name": "",
          "type": "address"
        }
      ],
      "name": "tutorsByAddress",
      "outputs": [
        {
          "internalType": "uint256",
          "name": "",
          "type": "uint256"
        }
      ],
      "stateMutability": "view",
      "type": "function",
      "constant": true
    },
    {
      "inputs": [
        {
          "internalType": "uint256",
          "name": "",
          "type": "uint256"
        }
      ],
      "name": "tutorsRegistered",
      "outputs": [
        {
          "internalType": "bool",
          "name": "",
          "type": "bool"
        }
      ],
      "stateMutability": "view",
      "type": "function",
      "constant": true
    },
    {
      "inputs": [],
      "name": "getTutors",
      "outputs": [
        {
          "components": [
            {
              "internalType": "uint256",
              "name": "tutorId",
              "type": "uint256"
            },
            {
              "internalType": "string",
              "name": "name",
              "type": "string"
            },
            {
              "internalType": "uint256",
              "name": "hourlyRate",
              "type": "uint256"
            },
            {
              "internalType": "enum Tutors.Status",
              "name": "status",
              "type": "uint8"
            },
            {
              "internalType": "address payable",
              "name": "account",
              "type": "address"
            },
            {
              "internalType": "string",
              "name": "subject",
              "type": "string"
            },
            {
              "internalType": "string",
              "name": "description",
              "type": "string"
            },
            {
              "internalType": "string",
              "name": "imgUrl",
              "type": "string"
            }
          ],
          "internalType": "struct Tutors.Tutor[]",
          "name": "",
          "type": "tuple[]"
        }
      ],
      "stateMutability": "view",
      "type": "function",
      "constant": true
    },
    {
      "inputs": [
        {
          "internalType": "string",
          "name": "_name",
          "type": "string"
        },
        {
          "internalType": "address",
          "name": "_account",
          "type": "address"
        },
        {
          "internalType": "uint256",
          "name": "_hourlyRate",
          "type": "uint256"
        },
        {
          "internalType": "string",
          "name": "_subject",
          "type": "string"
        },
        {
          "internalType": "string",
          "name": "_description",
          "type": "string"
        },
        {
          "internalType": "string",
          "name": "_imgUrl",
          "type": "string"
        }
      ],
      "name": "registerTutor",
      "outputs": [],
      "stateMutability": "nonpayable",
      "type": "function"
    },
    {
      "inputs": [
        {
          "internalType": "uint256",
          "name": "tutorId",
          "type": "uint256"
        }
      ],
      "name": "bookTutor",
      "outputs": [],
      "stateMutability": "payable",
      "type": "function",
      "payable": true
    },
    {
      "inputs": [],
      "name": "availableTutorIds",
      "outputs": [
        {
          "internalType": "uint256[]",
          "name": "",
          "type": "uint256[]"
        }
      ],
      "stateMutability": "view",
      "type": "function",
      "constant": true
    },
    {
      "inputs": [
        {
          "internalType": "bool",
          "name": "isAvail",
          "type": "bool"
        }
      ],
      "name": "setAvailability",
      "outputs": [],
      "stateMutability": "nonpayable",
      "type": "function"
    },
    {
      "inputs": [],
      "name": "getSignups",
      "outputs": [
        {
          "internalType": "uint256[]",
          "name": "",
          "type": "uint256[]"
        }
      ],
      "stateMutability": "view",
      "type": "function",
      "constant": true
    },
    {
      "inputs": [
        {
          "internalType": "uint256",
          "name": "tutorId",
          "type": "uint256"
        }
      ],
      "name": "deleteBooking",
      "outputs": [],
      "stateMutability": "nonpayable",
      "type": "function"
    }
  ],
  "bytecode": "0x6080604052600180553480156200001557600080fd5b50620000366200002a6200003c60201b60201c565b6200004460201b60201c565b62000108565b600033905090565b60008060009054906101000a900473ffffffffffffffffffffffffffffffffffffffff169050816000806101000a81548173ffffffffffffffffffffffffffffffffffffffff021916908373ffffffffffffffffffffffffffffffffffffffff1602179055508173ffffffffffffffffffffffffffffffffffffffff168173ffffffffffffffffffffffffffffffffffffffff167f8be0079c531659141344cd1fd0a4f28419497f9722a3daafe3b4186f6b6457e060405160405180910390a35050565b612fa380620001186000396000f3fe6080604052600436106100f35760003560e01c8063671484761161008a5780638da5cb5b116100595780638da5cb5b146103225780639e5868b61461034d578063de7cfe3614610378578063f2fde38b146103b5576100f3565b8063671484761461025f578063715018a61461028a5780637310c954146102a1578063834a5577146102e5576100f3565b806349fc47bc116100c657806349fc47bc146101a357806359ccf86c146101cc5780636313531f146101f75780636386cd1714610234576100f3565b8063025d267c146100f85780631dab301e1461011457806326a18375146101515780633ae7f0df1461017a575b600080fd5b610112600480360381019061010d91906122a8565b6103de565b005b34801561012057600080fd5b5061013b600480360381019061013691906122a8565b61073d565b60405161014891906128d1565b60405180910390f35b34801561015d57600080fd5b5061017860048036038101906101739190612196565b610770565b005b34801561018657600080fd5b506101a1600480360381019061019c91906122a8565b61098f565b005b3480156101af57600080fd5b506101ca60048036038101906101c591906121bf565b610b8f565b005b3480156101d857600080fd5b506101e1610f81565b6040516101ee919061290e565b60405180910390f35b34801561020357600080fd5b5061021e600480360381019061021991906122a8565b611172565b60405161022b9190612a8b565b60405180910390f35b34801561024057600080fd5b50610249611196565b6040516102569190612a8b565b60405180910390f35b34801561026b57600080fd5b5061027461119c565b60405161028191906128ec565b60405180910390f35b34801561029657600080fd5b5061029f611626565b005b3480156102ad57600080fd5b506102c860048036038101906102c391906122a8565b6116ae565b6040516102dc989796959493929190612acf565b60405180910390f35b3480156102f157600080fd5b5061030c6004803603810190610307919061216d565b611943565b6040516103199190612a8b565b60405180910390f35b34801561032e57600080fd5b5061033761195b565b60405161034491906128d1565b60405180910390f35b34801561035957600080fd5b50610362611984565b60405161036f919061290e565b60405180910390f35b34801561038457600080fd5b5061039f600480360381019061039a91906122a8565b611ba3565b6040516103ac9190612930565b60405180910390f35b3480156103c157600080fd5b506103dc60048036038101906103d7919061216d565b611bc3565b005b806006600082815260200190815260200160002060009054906101000a900460ff16801561049f575060006002811115610441577f4e487b7100000000000000000000000000000000000000000000000000000000600052602160045260246000fd5b6004600083815260200190815260200160002060030160009054906101000a900460ff16600281111561049d577f4e487b7100000000000000000000000000000000000000000000000000000000600052602160045260246000fd5b145b6104de576040517f08c379a00000000000000000000000000000000000000000000000000000000081526004016104d59061296b565b60405180910390fd5b816006600082815260200190815260200160002060009054906101000a900460ff1680156105215750346004600083815260200190815260200160002060020154145b610560576040517f08c379a00000000000000000000000000000000000000000000000000000000081526004016105579061294b565b60405180910390fd5b600060046000858152602001908152602001600020905060018160030160006101000a81548160ff021916908360028111156105c5577f4e487b7100000000000000000000000000000000000000000000000000000000600052602160045260246000fd5b021790555060008160030160019054906101000a900473ffffffffffffffffffffffffffffffffffffffff16905060008173ffffffffffffffffffffffffffffffffffffffff1634604051610619906128bc565b60006040518083038185875af1925050503d8060008114610656576040519150601f19603f3d011682016040523d82523d6000602084013e61065b565b606091505b505090508061069f576040517f08c379a000000000000000000000000000000000000000000000000000000000815260040161069690612a0b565b60405180910390fd5b336007600088815260200190815260200160002060006101000a81548173ffffffffffffffffffffffffffffffffffffffff021916908373ffffffffffffffffffffffffffffffffffffffff1602179055503373ffffffffffffffffffffffffffffffffffffffff16867f54a7f1573f46dd77f97502fb0e059c589cdedc1735be5940ea2d173d95203ded60405160405180910390a3505050505050565b60076020528060005260406000206000915054906101000a900473ffffffffffffffffffffffffffffffffffffffff1681565b6000600560003373ffffffffffffffffffffffffffffffffffffffff1673ffffffffffffffffffffffffffffffffffffffff1681526020019081526020016000205490506006600082815260200190815260200160002060009054906101000a900460ff16610814576040517f08c379a000000000000000000000000000000000000000000000000000000000815260040161080b90612a4b565b60405180910390fd5b81156108845760006004600083815260200190815260200160002060030160006101000a81548160ff0219169083600281111561087a577f4e487b7100000000000000000000000000000000000000000000000000000000600052602160045260246000fd5b02179055506108ea565b60026004600083815260200190815260200160002060030160006101000a81548160ff021916908360028111156108e4577f4e487b7100000000000000000000000000000000000000000000000000000000600052602160045260246000fd5b02179055505b60006007600083815260200190815260200160002060006101000a81548173ffffffffffffffffffffffffffffffffffffffff021916908373ffffffffffffffffffffffffffffffffffffffff1602179055503373ffffffffffffffffffffffffffffffffffffffff167f68e9c878711f84fdb7be414913e4865bfe9086041abaf0d5670170e2e187c6db836040516109839190612930565b60405180910390a25050565b6006600082815260200190815260200160002060009054906101000a900460ff166109ef576040517f08c379a00000000000000000000000000000000000000000000000000000000081526004016109e690612a6b565b60405180910390fd5b3373ffffffffffffffffffffffffffffffffffffffff166007600083815260200190815260200160002060009054906101000a900473ffffffffffffffffffffffffffffffffffffffff1673ffffffffffffffffffffffffffffffffffffffff1614610a90576040517f08c379a0000000000000000000000000000000000000000000000000000000008152600401610a87906129eb565b60405180910390fd5b60006004600083815260200190815260200160002060030160006101000a81548160ff02191690836002811115610af0577f4e487b7100000000000000000000000000000000000000000000000000000000600052602160045260246000fd5b021790555060006007600083815260200190815260200160002060006101000a81548173ffffffffffffffffffffffffffffffffffffffff021916908373ffffffffffffffffffffffffffffffffffffffff1602179055503373ffffffffffffffffffffffffffffffffffffffff16817fa4a48a19270e2c1b0d01de0bd658cda613a330213ad59cbd2c875b90e99df4f060405160405180910390a350565b600073ffffffffffffffffffffffffffffffffffffffff168573ffffffffffffffffffffffffffffffffffffffff161415610bff576040517f08c379a0000000000000000000000000000000000000000000000000000000008152600401610bf6906129cb565b60405180910390fd5b6000600560008773ffffffffffffffffffffffffffffffffffffffff1673ffffffffffffffffffffffffffffffffffffffff1681526020019081526020016000205414610c81576040517f08c379a0000000000000000000000000000000000000000000000000000000008152600401610c78906129ab565b60405180910390fd5b60006001549050600060405180610100016040528083815260200189815260200187815260200160006002811115610ce2577f4e487b7100000000000000000000000000000000000000000000000000000000600052602160045260246000fd5b81526020018873ffffffffffffffffffffffffffffffffffffffff1681526020018681526020018581526020018481525090506001806000828254610d279190612c7f565b925050819055506002829080600181540180825580915050600190039060005260206000200160009091909190915055600280549050600381905550806004600083600001518152602001908152602001600020600082015181600001556020820151816001019080519060200190610da1929190611f90565b506040820151816002015560608201518160030160006101000a81548160ff02191690836002811115610dfd577f4e487b7100000000000000000000000000000000000000000000000000000000600052602160045260246000fd5b021790555060808201518160030160016101000a81548173ffffffffffffffffffffffffffffffffffffffff021916908373ffffffffffffffffffffffffffffffffffffffff16021790555060a0820151816004019080519060200190610e65929190611f90565b5060c0820151816005019080519060200190610e82929190611f90565b5060e0820151816006019080519060200190610e9f929190611f90565b509050506001600660008360000151815260200190815260200160002060006101000a81548160ff02191690831515021790555081600560008973ffffffffffffffffffffffffffffffffffffffff1673ffffffffffffffffffffffffffffffffffffffff168152602001908152602001600020819055508060200151604051610f2991906128a5565b604051809103902081600001517fe7ed7d16699ea86ccdc1c7fe7e1ebfe70665e948901d1437ae636221c31c704e83604001518460800151604051610f6f929190612aa6565b60405180910390a35050505050505050565b606060003390506000610f9382611cbb565b67ffffffffffffffff811115610fd2577f4e487b7100000000000000000000000000000000000000000000000000000000600052604160045260246000fd5b6040519080825280602002602001820160405280156110005781602001602082028036833780820191505090505b5090506000805b600354811015611168578373ffffffffffffffffffffffffffffffffffffffff166007600060028481548110611066577f4e487b7100000000000000000000000000000000000000000000000000000000600052603260045260246000fd5b9060005260206000200154815260200190815260200160002060009054906101000a900473ffffffffffffffffffffffffffffffffffffffff1673ffffffffffffffffffffffffffffffffffffffff16141561115557600281815481106110f6577f4e487b7100000000000000000000000000000000000000000000000000000000600052603260045260246000fd5b906000526020600020015483838151811061113a577f4e487b7100000000000000000000000000000000000000000000000000000000600052603260045260246000fd5b602002602001018181525050818061115190612dfe565b9250505b808061116090612dfe565b915050611007565b5081935050505090565b6002818154811061118257600080fd5b906000526020600020016000915090505481565b60035481565b6060600060035467ffffffffffffffff8111156111e2577f4e487b7100000000000000000000000000000000000000000000000000000000600052604160045260246000fd5b60405190808252806020026020018201604052801561121b57816020015b611208612016565b8152602001906001900390816112005790505b50905060005b60035481101561161e576004600060028381548110611269577f4e487b7100000000000000000000000000000000000000000000000000000000600052603260045260246000fd5b9060005260206000200154815260200190815260200160002060405180610100016040529081600082015481526020016001820180546112a890612dcc565b80601f01602080910402602001604051908101604052809291908181526020018280546112d490612dcc565b80156113215780601f106112f657610100808354040283529160200191611321565b820191906000526020600020905b81548152906001019060200180831161130457829003601f168201915b50505050508152602001600282015481526020016003820160009054906101000a900460ff16600281111561137f577f4e487b7100000000000000000000000000000000000000000000000000000000600052602160045260246000fd5b60028111156113b7577f4e487b7100000000000000000000000000000000000000000000000000000000600052602160045260246000fd5b81526020016003820160019054906101000a900473ffffffffffffffffffffffffffffffffffffffff1673ffffffffffffffffffffffffffffffffffffffff1673ffffffffffffffffffffffffffffffffffffffff16815260200160048201805461142190612dcc565b80601f016020809104026020016040519081016040528092919081815260200182805461144d90612dcc565b801561149a5780601f1061146f5761010080835404028352916020019161149a565b820191906000526020600020905b81548152906001019060200180831161147d57829003601f168201915b505050505081526020016005820180546114b390612dcc565b80601f01602080910402602001604051908101604052809291908181526020018280546114df90612dcc565b801561152c5780601f106115015761010080835404028352916020019161152c565b820191906000526020600020905b81548152906001019060200180831161150f57829003601f168201915b5050505050815260200160068201805461154590612dcc565b80601f016020809104026020016040519081016040528092919081815260200182805461157190612dcc565b80156115be5780601f10611593576101008083540402835291602001916115be565b820191906000526020600020905b8154815290600101906020018083116115a157829003601f168201915b505050505081525050828281518110611600577f4e487b7100000000000000000000000000000000000000000000000000000000600052603260045260246000fd5b6020026020010181905250808061161690612dfe565b915050611221565b508091505090565b61162e611da6565b73ffffffffffffffffffffffffffffffffffffffff1661164c61195b565b73ffffffffffffffffffffffffffffffffffffffff16146116a2576040517f08c379a000000000000000000000000000000000000000000000000000000000815260040161169990612a2b565b60405180910390fd5b6116ac6000611dae565b565b60046020528060005260406000206000915090508060000154908060010180546116d790612dcc565b80601f016020809104026020016040519081016040528092919081815260200182805461170390612dcc565b80156117505780601f1061172557610100808354040283529160200191611750565b820191906000526020600020905b81548152906001019060200180831161173357829003601f168201915b5050505050908060020154908060030160009054906101000a900460ff16908060030160019054906101000a900473ffffffffffffffffffffffffffffffffffffffff16908060040180546117a490612dcc565b80601f01602080910402602001604051908101604052809291908181526020018280546117d090612dcc565b801561181d5780601f106117f25761010080835404028352916020019161181d565b820191906000526020600020905b81548152906001019060200180831161180057829003601f168201915b50505050509080600501805461183290612dcc565b80601f016020809104026020016040519081016040528092919081815260200182805461185e90612dcc565b80156118ab5780601f10611880576101008083540402835291602001916118ab565b820191906000526020600020905b81548152906001019060200180831161188e57829003601f168201915b5050505050908060060180546118c090612dcc565b80601f01602080910402602001604051908101604052809291908181526020018280546118ec90612dcc565b80156119395780601f1061190e57610100808354040283529160200191611939565b820191906000526020600020905b81548152906001019060200180831161191c57829003601f168201915b5050505050905088565b60056020528060005260406000206000915090505481565b60008060009054906101000a900473ffffffffffffffffffffffffffffffffffffffff16905090565b60606000611990611e72565b67ffffffffffffffff8111156119cf577f4e487b7100000000000000000000000000000000000000000000000000000000600052604160045260246000fd5b6040519080825280602002602001820160405280156119fd5781602001602082028036833780820191505090505b5090506000805b600354811015611b9a5760006002811115611a48577f4e487b7100000000000000000000000000000000000000000000000000000000600052602160045260246000fd5b6004600060028481548110611a86577f4e487b7100000000000000000000000000000000000000000000000000000000600052603260045260246000fd5b9060005260206000200154815260200190815260200160002060030160009054906101000a900460ff166002811115611ae8577f4e487b7100000000000000000000000000000000000000000000000000000000600052602160045260246000fd5b1415611b875760028181548110611b28577f4e487b7100000000000000000000000000000000000000000000000000000000600052603260045260246000fd5b9060005260206000200154838381518110611b6c577f4e487b7100000000000000000000000000000000000000000000000000000000600052603260045260246000fd5b6020026020010181815250508180611b8390612dfe565b9250505b8080611b9290612dfe565b915050611a04565b50819250505090565b60066020528060005260406000206000915054906101000a900460ff1681565b611bcb611da6565b73ffffffffffffffffffffffffffffffffffffffff16611be961195b565b73ffffffffffffffffffffffffffffffffffffffff1614611c3f576040517f08c379a0000000000000000000000000000000000000000000000000000000008152600401611c3690612a2b565b60405180910390fd5b600073ffffffffffffffffffffffffffffffffffffffff168173ffffffffffffffffffffffffffffffffffffffff161415611caf576040517f08c379a0000000000000000000000000000000000000000000000000000000008152600401611ca69061298b565b60405180910390fd5b611cb881611dae565b50565b6000806000905060005b600354811015611d9c578373ffffffffffffffffffffffffffffffffffffffff166007600060028481548110611d24577f4e487b7100000000000000000000000000000000000000000000000000000000600052603260045260246000fd5b9060005260206000200154815260200190815260200160002060009054906101000a900473ffffffffffffffffffffffffffffffffffffffff1673ffffffffffffffffffffffffffffffffffffffff161415611d89578180611d8590612dfe565b9250505b8080611d9490612dfe565b915050611cc5565b5080915050919050565b600033905090565b60008060009054906101000a900473ffffffffffffffffffffffffffffffffffffffff169050816000806101000a81548173ffffffffffffffffffffffffffffffffffffffff021916908373ffffffffffffffffffffffffffffffffffffffff1602179055508173ffffffffffffffffffffffffffffffffffffffff168173ffffffffffffffffffffffffffffffffffffffff167f8be0079c531659141344cd1fd0a4f28419497f9722a3daafe3b4186f6b6457e060405160405180910390a35050565b6000806000905060005b600354811015611f885760006002811115611ec0577f4e487b7100000000000000000000000000000000000000000000000000000000600052602160045260246000fd5b6004600060028481548110611efe577f4e487b7100000000000000000000000000000000000000000000000000000000600052603260045260246000fd5b9060005260206000200154815260200190815260200160002060030160009054906101000a900460ff166002811115611f60577f4e487b7100000000000000000000000000000000000000000000000000000000600052602160045260246000fd5b1415611f75578180611f7190612dfe565b9250505b8080611f8090612dfe565b915050611e7c565b508091505090565b828054611f9c90612dcc565b90600052602060002090601f016020900481019282611fbe5760008555612005565b82601f10611fd757805160ff1916838001178555612005565b82800160010185558215612005579182015b82811115612004578251825591602001919060010190611fe9565b5b50905061201291906120a9565b5090565b60405180610100016040528060008152602001606081526020016000815260200160006002811115612071577f4e487b7100000000000000000000000000000000000000000000000000000000600052602160045260246000fd5b8152602001600073ffffffffffffffffffffffffffffffffffffffff1681526020016060815260200160608152602001606081525090565b5b808211156120c25760008160009055506001016120aa565b5090565b60006120d96120d484612b9a565b612b69565b9050828152602081018484840111156120f157600080fd5b6120fc848285612d8a565b509392505050565b60008135905061211381612f28565b92915050565b60008135905061212881612f3f565b92915050565b600082601f83011261213f57600080fd5b813561214f8482602086016120c6565b91505092915050565b60008135905061216781612f56565b92915050565b60006020828403121561217f57600080fd5b600061218d84828501612104565b91505092915050565b6000602082840312156121a857600080fd5b60006121b684828501612119565b91505092915050565b60008060008060008060c087890312156121d857600080fd5b600087013567ffffffffffffffff8111156121f257600080fd5b6121fe89828a0161212e565b965050602061220f89828a01612104565b955050604061222089828a01612158565b945050606087013567ffffffffffffffff81111561223d57600080fd5b61224989828a0161212e565b935050608087013567ffffffffffffffff81111561226657600080fd5b61227289828a0161212e565b92505060a087013567ffffffffffffffff81111561228f57600080fd5b61229b89828a0161212e565b9150509295509295509295565b6000602082840312156122ba57600080fd5b60006122c884828501612158565b91505092915050565b60006122dd83836127c2565b905092915050565b60006122f18383612887565b60208301905092915050565b61230681612d42565b82525050565b61231581612ce7565b82525050565b61232481612ce7565b82525050565b61233381612cd5565b82525050565b600061234482612bea565b61234e8185612c25565b93508360208202850161236085612bca565b8060005b8581101561239c578484038952815161237d85826122d1565b945061238883612c0b565b925060208a01995050600181019050612364565b50829750879550505050505092915050565b60006123b982612bf5565b6123c38185612c36565b93506123ce83612bda565b8060005b838110156123ff5781516123e688826122e5565b97506123f183612c18565b9250506001810190506123d2565b5085935050505092915050565b61241581612cf9565b82525050565b61242481612d54565b82525050565b61243381612d54565b82525050565b600061244482612c00565b61244e8185612c52565b935061245e818560208601612d99565b61246781612f03565b840191505092915050565b600061247d82612c00565b6124878185612c63565b9350612497818560208601612d99565b6124a081612f03565b840191505092915050565b60006124b682612c00565b6124c08185612c74565b93506124d0818560208601612d99565b80840191505092915050565b60006124e9602083612c63565b91507f506c65617365207061792065786163742074756974696f6e20616d6f756e742e6000830152602082019050919050565b6000612529601c83612c63565b91507f54686973207475746f72206973206e6f7420617661696c61626c652e000000006000830152602082019050919050565b6000612569602683612c63565b91507f4f776e61626c653a206e6577206f776e657220697320746865207a65726f206160008301527f64647265737300000000000000000000000000000000000000000000000000006020830152604082019050919050565b60006125cf601a83612c63565b91507f4164647265737320616c726561647920726567697374657265640000000000006000830152602082019050919050565b600061260f600c83612c63565b91507f41646472657373206973203000000000000000000000000000000000000000006000830152602082019050919050565b600061264f601d83612c63565b91507f5475746f72206e6f742061737369676e656420746f2073747564656e740000006000830152602082019050919050565b600061268f602283612c63565b91507f426f6f6b696e672073657373696f6e2077697468207475746f72206661696c6560008301527f642e0000000000000000000000000000000000000000000000000000000000006020830152604082019050919050565b60006126f5602083612c63565b91507f4f776e61626c653a2063616c6c6572206973206e6f7420746865206f776e65726000830152602082019050919050565b6000612735601483612c63565b91507f5475746f72206e6f7420726567697374657265640000000000000000000000006000830152602082019050919050565b6000612775600083612c47565b9150600082019050919050565b600061278f601783612c63565b91507f5475746f72206973206e6f7420726567697374657265640000000000000000006000830152602082019050919050565b6000610100830160008301516127db6000860182612887565b50602083015184820360208601526127f38282612439565b91505060408301516128086040860182612887565b50606083015161281b606086018261241b565b50608083015161282e608086018261230c565b5060a083015184820360a08601526128468282612439565b91505060c083015184820360c08601526128608282612439565b91505060e083015184820360e086015261287a8282612439565b9150508091505092915050565b61289081612d38565b82525050565b61289f81612d38565b82525050565b60006128b182846124ab565b915081905092915050565b60006128c782612768565b9150819050919050565b60006020820190506128e6600083018461232a565b92915050565b600060208201905081810360008301526129068184612339565b905092915050565b6000602082019050818103600083015261292881846123ae565b905092915050565b6000602082019050612945600083018461240c565b92915050565b60006020820190508181036000830152612964816124dc565b9050919050565b600060208201905081810360008301526129848161251c565b9050919050565b600060208201905081810360008301526129a48161255c565b9050919050565b600060208201905081810360008301526129c4816125c2565b9050919050565b600060208201905081810360008301526129e481612602565b9050919050565b60006020820190508181036000830152612a0481612642565b9050919050565b60006020820190508181036000830152612a2481612682565b9050919050565b60006020820190508181036000830152612a44816126e8565b9050919050565b60006020820190508181036000830152612a6481612728565b9050919050565b60006020820190508181036000830152612a8481612782565b9050919050565b6000602082019050612aa06000830184612896565b92915050565b6000604082019050612abb6000830185612896565b612ac860208301846122fd565b9392505050565b600061010082019050612ae5600083018b612896565b8181036020830152612af7818a612472565b9050612b066040830189612896565b612b13606083018861242a565b612b20608083018761231b565b81810360a0830152612b328186612472565b905081810360c0830152612b468185612472565b905081810360e0830152612b5a8184612472565b90509998505050505050505050565b6000604051905081810181811067ffffffffffffffff82111715612b9057612b8f612ed4565b5b8060405250919050565b600067ffffffffffffffff821115612bb557612bb4612ed4565b5b601f19601f8301169050602081019050919050565b6000819050602082019050919050565b6000819050602082019050919050565b600081519050919050565b600081519050919050565b600081519050919050565b6000602082019050919050565b6000602082019050919050565b600082825260208201905092915050565b600082825260208201905092915050565b600081905092915050565b600082825260208201905092915050565b600082825260208201905092915050565b600081905092915050565b6000612c8a82612d38565b9150612c9583612d38565b9250827fffffffffffffffffffffffffffffffffffffffffffffffffffffffffffffffff03821115612cca57612cc9612e47565b5b828201905092915050565b6000612ce082612d18565b9050919050565b6000612cf282612d18565b9050919050565b60008115159050919050565b6000819050612d1382612f14565b919050565b600073ffffffffffffffffffffffffffffffffffffffff82169050919050565b6000819050919050565b6000612d4d82612d66565b9050919050565b6000612d5f82612d05565b9050919050565b6000612d7182612d78565b9050919050565b6000612d8382612d18565b9050919050565b82818337600083830152505050565b60005b83811015612db7578082015181840152602081019050612d9c565b83811115612dc6576000848401525b50505050565b60006002820490506001821680612de457607f821691505b60208210811415612df857612df7612ea5565b5b50919050565b6000612e0982612d38565b91507fffffffffffffffffffffffffffffffffffffffffffffffffffffffffffffffff821415612e3c57612e3b612e47565b5b600182019050919050565b7f4e487b7100000000000000000000000000000000000000000000000000000000600052601160045260246000fd5b7f4e487b7100000000000000000000000000000000000000000000000000000000600052602160045260246000fd5b7f4e487b7100000000000000000000000000000000000000000000000000000000600052602260045260246000fd5b7f4e487b7100000000000000000000000000000000000000000000000000000000600052604160045260246000fd5b6000601f19601f8301169050919050565b60038110612f2557612f24612e76565b5b50565b612f3181612cd5565b8114612f3c57600080fd5b50565b612f4881612cf9565b8114612f5357600080fd5b50565b612f5f81612d38565b8114612f6a57600080fd5b5056fea26469706673582212204d45fffff8def668acc97b61e81046d8adb5aded4d644a517f2fa3a47608f18364736f6c63430008000033",
  "immutableReferences": {},
  "source": "// SPDX-License-Identifier: MIT\npragma solidity 0.8.0;\n\nimport \"@openzeppelin/contracts/access/Ownable.sol\";\nimport \"@openzeppelin/contracts/utils/Strings.sol\";\n\ncontract Tutors is Ownable {\n    /// @dev Tracks tutor IDs. Next tutor that is registered gets the current value of tutorIdCounter id.\n    uint256 private tutorIdCounter = 1;\n\n    enum Status {\n        Available,\n        Booked,\n        NotAvailable\n    }\n\n    struct Tutor {\n        uint256 tutorId;\n        string name;\n        uint256 hourlyRate;\n        Status status;\n        address payable account;\n        string subject;\n        string description;\n        string imgUrl;\n    }\n\n    /// @notice List of all tutor ids.\n    /// @dev Used as a helper when iterating available tutors.\n    uint256[] public idList;\n\n    /// @notice idList length.\n    /// @dev Used as a helper when iterating available tutors.\n    uint256 public idListLength;\n\n    mapping(uint256 => Tutor) public tutors;\n\n    mapping(address => uint256) public tutorsByAddress;\n\n    mapping(uint256 => bool) public tutorsRegistered;\n\n    mapping(uint256 => address) public bookings; // tutor_id -> student address\n\n    /// @notice Emitted when a tutor is added to the service\n    /// @param tutor tutor id\n    /// @param name tutor name\n    /// @param hourlyrate tutor's hourly rate\n    /// @param account tutor's ETH address where payments will be deposited\n    event LogTutorAdded(\n        uint256 indexed tutor,\n        string indexed name,\n        uint256 hourlyrate,\n        address account\n    );\n\n    /// @notice Emitted when a tutor is booked by a student\n    /// @param tutor tutor id\n    /// @param student students address\n    event LogTutorBooked(uint256 indexed tutor, address indexed student);\n\n    event LogDeleteBooking(uint256 indexed tutorId, address indexed student);\n\n    event LogAvailabilityChange(address indexed tutor, bool isAvail);\n\n    modifier isTutorAvailable(uint256 id) {\n        require(\n            tutorsRegistered[id] && tutors[id].status == Status.Available,\n            \"This tutor is not available.\"\n        );\n        _;\n    }\n\n    modifier isExactPayment(uint256 id) {\n        require(\n            tutorsRegistered[id] && tutors[id].hourlyRate == msg.value,\n            \"Please pay exact tuition amount.\"\n        );\n        _;\n    }\n\n    constructor() {}\n\n    function getTutors() public view returns (Tutor[] memory) {\n        Tutor[] memory _tutors = new Tutor[](idListLength);\n        for (uint256 i = 0; i < idListLength; i++) {\n            _tutors[i] = tutors[idList[i]];\n        }\n        return _tutors;\n    }\n\n    // ideally we want only msg.sender to register but this allows\n    // easier testing and also some delegate to register a list of tutors\n    function registerTutor(\n        string memory _name,\n        address _account,\n        uint256 _hourlyRate,\n        string memory _subject,\n        string memory _description,\n        string memory _imgUrl\n    ) public {\n        require(_account != address(0), \"Address is 0\");\n        require(tutorsByAddress[_account] == 0, \"Address already registered\");\n        uint256 newTutorId = tutorIdCounter;\n\n        Tutor memory newTutor = Tutor({\n            tutorId: newTutorId,\n            name: _name,\n            hourlyRate: _hourlyRate,\n            status: Status.Available,\n            account: payable(_account),\n            subject: _subject,\n            description: _description,\n            imgUrl: _imgUrl\n        });\n\n        tutorIdCounter += 1;\n        idList.push(newTutorId);\n        idListLength = idList.length;\n        tutors[newTutor.tutorId] = newTutor;\n        tutorsRegistered[newTutor.tutorId] = true;\n        tutorsByAddress[_account] = newTutorId;\n\n        emit LogTutorAdded(\n            newTutor.tutorId,\n            newTutor.name,\n            newTutor.hourlyRate,\n            newTutor.account\n        );\n    }\n\n    function bookTutor(uint256 tutorId)\n        public\n        payable\n        isTutorAvailable(tutorId)\n        isExactPayment(tutorId)\n    {\n        Tutor storage _t = tutors[tutorId];\n        _t.status = Status.Booked;\n        address tutorAcc = _t.account;\n        (bool success, ) = tutorAcc.call{value: msg.value}(\"\");\n        require(success, \"Booking session with tutor failed.\");\n        bookings[tutorId] = msg.sender;\n        emit LogTutorBooked(tutorId, msg.sender);\n    }\n\n    function _getAvailCount() internal view returns (uint256) {\n        uint256 count = 0;\n        for (uint256 i = 0; i < idListLength; i++) {\n            if (tutors[idList[i]].status == Status.Available) {\n                count++;\n            }\n        }\n        return count;\n    }\n\n    function _getSignupCount(address student) internal view returns (uint256) {\n        uint256 count = 0;\n        for (uint256 i = 0; i < idListLength; i++) {\n            if (bookings[idList[i]] == student) {\n                count++;\n            }\n        }\n        return count;\n    }\n\n    function availableTutorIds() external view returns (uint256[] memory) {\n        uint256[] memory availIds = new uint256[](_getAvailCount());\n        uint256 j = 0;\n        for (uint256 i = 0; i < idListLength; i++) {\n            if (tutors[idList[i]].status == Status.Available) {\n                availIds[j] = idList[i];\n                j++;\n            }\n        }\n        return availIds;\n    }\n\n    function setAvailability(bool isAvail) public {\n        uint256 _tutorId = tutorsByAddress[msg.sender];\n        require(tutorsRegistered[_tutorId], \"Tutor not registered\");\n        if (isAvail) {\n            tutors[_tutorId].status = Status.Available;\n        } else {\n            tutors[_tutorId].status = Status.NotAvailable;\n        }\n        bookings[_tutorId] = address(0);\n        emit LogAvailabilityChange(msg.sender, isAvail);\n    }\n\n    function getSignups() public view returns (uint256[] memory) {\n        address _student = msg.sender;\n        uint256[] memory tutorIds = new uint256[](_getSignupCount(_student));\n        uint256 j = 0;\n        for (uint256 i = 0; i < idListLength; i++) {\n            if (bookings[idList[i]] == _student) {\n                tutorIds[j] = idList[i];\n                j++;\n            }\n        }\n        return tutorIds;\n    }\n\n    function deleteBooking(uint256 tutorId) external {\n        require(tutorsRegistered[tutorId], \"Tutor is not registered\");\n        require(\n            bookings[tutorId] == msg.sender,\n            \"Tutor not assigned to student\"\n        );\n        tutors[tutorId].status = Status.Available;\n        bookings[tutorId] = address(0);\n        emit LogDeleteBooking(tutorId, msg.sender);\n    }\n}\n",
  "sourcePath": "/Users/suren/Desktop/suren/blockchain/tutors/blockchain-developer-bootcamp-final-project/contracts/Tutors.sol",
  "compiler": {
    "name": "solc",
    "version": "0.8.0+commit.c7dfd78e.Emscripten.clang"
  },
  "schemaVersion": "3.4.1",
  "updatedAt": "2022-01-13T18:22:52.562Z",
  "networkType": "ethereum",
  "devdoc": {
    "events": {
      "LogTutorAdded(uint256,string,uint256,address)": {
        "params": {
          "account": "tutor's ETH address where payments will be deposited",
          "hourlyrate": "tutor's hourly rate",
          "name": "tutor name",
          "tutor": "tutor id"
        }
      },
      "LogTutorBooked(uint256,address)": {
        "params": {
          "student": "students address",
          "tutor": "tutor id"
        }
      }
    },
    "kind": "dev",
    "methods": {
      "owner()": {
        "details": "Returns the address of the current owner."
      },
      "renounceOwnership()": {
        "details": "Leaves the contract without owner. It will not be possible to call `onlyOwner` functions anymore. Can only be called by the current owner. NOTE: Renouncing ownership will leave the contract without an owner, thereby removing any functionality that is only available to the owner."
      },
      "transferOwnership(address)": {
        "details": "Transfers ownership of the contract to a new account (`newOwner`). Can only be called by the current owner."
      }
    },
    "stateVariables": {
      "idList": {
        "details": "Used as a helper when iterating available tutors."
      },
      "idListLength": {
        "details": "Used as a helper when iterating available tutors."
      },
      "tutorIdCounter": {
        "details": "Tracks tutor IDs. Next tutor that is registered gets the current value of tutorIdCounter id."
      }
    },
    "version": 1
  },
  "userdoc": {
    "events": {
      "LogTutorAdded(uint256,string,uint256,address)": {
        "notice": "Emitted when a tutor is added to the service"
      },
      "LogTutorBooked(uint256,address)": {
        "notice": "Emitted when a tutor is booked by a student"
      }
    },
    "kind": "user",
    "methods": {
      "idList(uint256)": {
        "notice": "List of all tutor ids."
      },
      "idListLength()": {
        "notice": "idList length."
      }
    },
    "version": 1
  }
}